{
  "address": "0xee72120c824549f2510b7398b7ef8b87E537D47B",
  "abi": [
    {
      "inputs": [],
      "stateMutability": "nonpayable",
      "type": "constructor"
    },
    {
      "anonymous": false,
      "inputs": [
        {
          "indexed": true,
          "internalType": "address",
          "name": "_from",
          "type": "address"
        },
        {
          "indexed": true,
          "internalType": "address",
          "name": "_to",
          "type": "address"
        },
        {
          "indexed": false,
          "internalType": "uint256",
          "name": "_amount",
          "type": "uint256"
        }
      ],
      "name": "PaymentSent",
      "type": "event"
    },
    {
      "stateMutability": "payable",
      "type": "fallback"
    },
    {
      "inputs": [],
      "name": "owner",
      "outputs": [
        {
          "internalType": "address",
          "name": "",
          "type": "address"
        }
      ],
      "stateMutability": "view",
      "type": "function"
    },
    {
      "inputs": [
        {
          "internalType": "address payable",
          "name": "_to",
          "type": "address"
        }
      ],
      "name": "sendPayment",
      "outputs": [],
      "stateMutability": "payable",
      "type": "function"
    },
    {
      "stateMutability": "payable",
      "type": "receive"
    }
  ],
  "transactionHash": "0x8a68c186034c740de96d1b3d3f67ca69e36c3c90b9c360cd944d1b2044676ba9",
  "args": [],
  "numDeployments": 1,
  "solcInputHash": "d098f87b1b5e242a4b1133107e90a83b",
  "bytecode": "0x608060405234801561001057600080fd5b50600080546001600160a01b03191633179055610201806100326000396000f3fe60806040526004361061002a5760003560e01c80638a7644a8146100335780638da5cb5b1461004657005b3661003157005b005b61003161004136600461019b565b610082565b34801561005257600080fd5b50600054610066906001600160a01b031681565b6040516001600160a01b03909116815260200160405180910390f35b600034116100d75760405162461bcd60e51b815260206004820152601e60248201527f4e656365736974617320656e7669617220616c676f206465204574686572000060448201526064015b60405180910390fd5b6001600160a01b0381166101225760405162461bcd60e51b8152602060048201526012602482015271446972656363696f6e20696e76616c69646160701b60448201526064016100ce565b6040516001600160a01b038216903480156108fc02916000818181858888f19350505050158015610157573d6000803e3d6000fd5b506040513481526001600160a01b0382169033907fd52bd61f7c422d441e024604f4517878fd3305d6acf0fe37baef23ed21af6bc99060200160405180910390a350565b6000602082840312156101ad57600080fd5b81356001600160a01b03811681146101c457600080fd5b939250505056fea2646970667358221220275caed73703b5d71d7bf2721b14fbb602b3d8f97c0d6e5c2bc8dfe76cd4259d64736f6c63430008110033",
  "devdoc": {
    "author": "BuidlGuidl",
    "kind": "dev",
    "methods": {},
    "version": 1
  },
  "userdoc": {
    "kind": "user",
    "methods": {},
    "notice": "A smart contract that allows changing a state variable of the contract and tracking the changes It also allows the owner to withdraw the Ether in the contract",
    "version": 1
  },
  "storageLayout": {
    "storage": [
      {
        "astId": 5,
        "contract": "contracts/YourContract.sol:YourContract",
        "label": "owner",
        "offset": 0,
        "slot": "0",
        "type": "t_address"
      }
    ],
    "types": {
      "t_address": {
        "encoding": "inplace",
        "label": "address",
        "numberOfBytes": "20"
      }
    }
  }
}